{
  "contractName": "DonationContract",
  "abi": [
    {
      "inputs": [],
      "stateMutability": "nonpayable",
      "type": "constructor"
    },
    {
      "inputs": [
        {
          "internalType": "uint256",
          "name": "",
          "type": "uint256"
        }
      ],
      "name": "campaigns",
      "outputs": [
        {
          "internalType": "string",
          "name": "campaignName",
          "type": "string"
        },
        {
          "internalType": "string",
          "name": "campaignDescription",
          "type": "string"
        },
        {
          "internalType": "uint256",
          "name": "maximumDonation",
          "type": "uint256"
        },
        {
          "internalType": "bool",
          "name": "campaignStatus",
          "type": "bool"
        }
      ],
      "stateMutability": "view",
      "type": "function",
      "constant": true
    },
    {
      "inputs": [
        {
          "internalType": "uint256",
          "name": "",
          "type": "uint256"
        }
      ],
      "name": "donations",
      "outputs": [
        {
          "components": [
            {
              "internalType": "address",
              "name": "donor",
              "type": "address"
            },
            {
              "internalType": "uint256",
              "name": "id",
              "type": "uint256"
            },
            {
              "internalType": "string",
              "name": "donorName",
              "type": "string"
            }
          ],
          "internalType": "struct DonationContract.Donor",
          "name": "donor",
          "type": "tuple"
        },
        {
          "components": [
            {
              "internalType": "string",
              "name": "donationType",
              "type": "string"
            },
            {
              "internalType": "uint256",
              "name": "campaignId",
              "type": "uint256"
            },
            {
              "internalType": "string",
              "name": "itemName",
              "type": "string"
            },
            {
              "internalType": "string",
              "name": "itemDescription",
              "type": "string"
            },
            {
              "internalType": "uint256",
              "name": "donationAmount",
              "type": "uint256"
            },
            {
              "internalType": "bool",
              "name": "donationStatus",
              "type": "bool"
            }
          ],
          "internalType": "struct DonationContract.DonationDetail",
          "name": "detail",
          "type": "tuple"
        }
      ],
      "stateMutability": "view",
      "type": "function",
      "constant": true
    },
    {
      "inputs": [
        {
          "internalType": "uint256",
          "name": "_campaignId",
          "type": "uint256"
        },
        {
          "internalType": "string",
          "name": "_donorName",
          "type": "string"
        },
        {
          "internalType": "string",
          "name": "_itemName",
          "type": "string"
        },
        {
          "internalType": "string",
          "name": "_itemDescription",
          "type": "string"
        }
      ],
      "name": "donateBarang",
      "outputs": [],
      "stateMutability": "nonpayable",
      "type": "function"
    },
    {
      "inputs": [
        {
          "internalType": "uint256",
          "name": "_campaignId",
          "type": "uint256"
        },
        {
          "internalType": "string",
          "name": "_donorName",
          "type": "string"
        },
        {
          "internalType": "uint256",
          "name": "_donationAmount",
          "type": "uint256"
        }
      ],
      "name": "donateUang",
      "outputs": [],
      "stateMutability": "nonpayable",
      "type": "function"
    },
    {
      "inputs": [
        {
          "internalType": "string",
          "name": "_campaignName",
          "type": "string"
        },
        {
          "internalType": "string",
          "name": "_campaignDescription",
          "type": "string"
        },
        {
          "internalType": "uint256",
          "name": "_maximumDonation",
          "type": "uint256"
        }
      ],
      "name": "createCampaign",
      "outputs": [
        {
          "internalType": "uint256",
          "name": "",
          "type": "uint256"
        }
      ],
      "stateMutability": "nonpayable",
      "type": "function"
    },
    {
      "inputs": [
        {
          "internalType": "uint256",
          "name": "_campaignId",
          "type": "uint256"
        }
      ],
      "name": "getDonationsCount",
      "outputs": [
        {
          "internalType": "uint256",
          "name": "",
          "type": "uint256"
        }
      ],
      "stateMutability": "view",
      "type": "function",
      "constant": true
    },
    {
      "inputs": [
        {
          "internalType": "uint256",
          "name": "_campaignId",
          "type": "uint256"
        }
      ],
      "name": "getDonors",
      "outputs": [
        {
          "internalType": "address[]",
          "name": "",
          "type": "address[]"
        },
        {
          "internalType": "uint256[]",
          "name": "",
          "type": "uint256[]"
        },
        {
          "internalType": "string[]",
          "name": "",
          "type": "string[]"
        }
      ],
      "stateMutability": "view",
      "type": "function",
      "constant": true
    },
    {
      "inputs": [
        {
          "internalType": "uint256",
          "name": "_campaignId",
          "type": "uint256"
        }
      ],
      "name": "getDonationDetails",
      "outputs": [
        {
          "internalType": "string[]",
          "name": "",
          "type": "string[]"
        },
        {
          "internalType": "uint256[]",
          "name": "",
          "type": "uint256[]"
        },
        {
          "internalType": "string[]",
          "name": "",
          "type": "string[]"
        },
        {
          "internalType": "string[]",
          "name": "",
          "type": "string[]"
        },
        {
          "internalType": "uint256[]",
          "name": "",
          "type": "uint256[]"
        },
        {
          "internalType": "bool[]",
          "name": "",
          "type": "bool[]"
        }
      ],
      "stateMutability": "view",
      "type": "function",
      "constant": true
    },
    {
      "inputs": [],
      "name": "getVolunteer",
      "outputs": [
        {
          "internalType": "address",
          "name": "",
          "type": "address"
        }
      ],
      "stateMutability": "view",
      "type": "function",
      "constant": true
    },
    {
      "inputs": [],
      "name": "getCampaigns",
      "outputs": [
        {
          "internalType": "uint256[]",
          "name": "",
          "type": "uint256[]"
        },
        {
          "internalType": "string[]",
          "name": "",
          "type": "string[]"
        },
        {
          "internalType": "string[]",
          "name": "",
          "type": "string[]"
        },
        {
          "internalType": "uint256[]",
          "name": "",
          "type": "uint256[]"
        },
        {
          "internalType": "bool[]",
          "name": "",
          "type": "bool[]"
        }
      ],
      "stateMutability": "view",
      "type": "function",
      "constant": true
    },
    {
      "inputs": [
        {
          "internalType": "uint256",
          "name": "_id",
          "type": "uint256"
        },
        {
          "internalType": "uint256",
          "name": "_campaignId",
          "type": "uint256"
        }
      ],
      "name": "updateDonationStatus",
      "outputs": [],
      "stateMutability": "nonpayable",
      "type": "function"
    },
    {
      "inputs": [
        {
          "internalType": "uint256",
          "name": "_campaignId",
          "type": "uint256"
        }
      ],
      "name": "updateCampaignStatus",
      "outputs": [],
      "stateMutability": "nonpayable",
      "type": "function"
    }
  ],
  "bytecode": "0x608060405234801561001057600080fd5b50336000806101000a81548173ffffffffffffffffffffffffffffffffffffffff021916908373ffffffffffffffffffffffffffffffffffffffff1602179055506132e7806100606000396000f3fe608060405234801561001057600080fd5b50600436106100b45760003560e01c8063a6b0363311610071578063a6b03633146101a4578063c713b04c146101c6578063e72260c3146101e2578063eb564d35146101fe578063f8626af814610233578063ffa56a5714610264576100b4565b8063141961bc146100b957806329516511146100ec5780634159d2d61461011e578063683d6e581461013a578063a484d6891461016a578063a48bb32414610186575b600080fd5b6100d360048036038101906100ce9190612160565b610294565b6040516100e39493929190612247565b60405180910390f35b61010660048036038101906101019190612160565b6103f1565b60405161011593929190612554565b60405180910390f35b610138600480360381019061013391906126d5565b6108b8565b005b610154600480360381019061014f9190612160565b610ba9565b6040516101619190612744565b60405180910390f35b610184600480360381019061017f919061275f565b610c68565b005b61018e610f82565b60405161019b9190612829565b60405180910390f35b6101ac610fab565b6040516101bd959493929190612902565b60405180910390f35b6101e060048036038101906101db9190612160565b6113d8565b005b6101fc60048036038101906101f79190612978565b611460565b005b61021860048036038101906102139190612160565b6115b9565b60405161022a969594939291906129b8565b60405180910390f35b61024d60048036038101906102489190612160565b611d2e565b60405161025b929190612b2a565b60405180910390f35b61027e60048036038101906102799190612b61565b61204d565b60405161028b9190612744565b60405180910390f35b600281815481106102a457600080fd5b90600052602060002090600402016000915090508060000180546102c790612c1b565b80601f01602080910402602001604051908101604052809291908181526020018280546102f390612c1b565b80156103405780601f1061031557610100808354040283529160200191610340565b820191906000526020600020905b81548152906001019060200180831161032357829003601f168201915b50505050509080600101805461035590612c1b565b80601f016020809104026020016040519081016040528092919081815260200182805461038190612c1b565b80156103ce5780601f106103a3576101008083540402835291602001916103ce565b820191906000526020600020905b8154815290600101906020018083116103b157829003601f168201915b5050505050908060020154908060030160009054906101000a900460ff16905084565b6060806060600280549050841061043d576040517f08c379a000000000000000000000000000000000000000000000000000000000815260040161043490612c98565b60405180910390fd5b600080600180549050905060005b8181101561052657866001828154811061046857610467612cb8565b5b9060005260206000209060090201600301600101541480156104ff5750600073ffffffffffffffffffffffffffffffffffffffff16600182815481106104b1576104b0612cb8565b5b906000526020600020906009020160000160000160009054906101000a900473ffffffffffffffffffffffffffffffffffffffff1673ffffffffffffffffffffffffffffffffffffffff1614155b1561051357828061050f90612d16565b9350505b808061051e90612d16565b91505061044b565b5060008267ffffffffffffffff811115610543576105426125aa565b5b6040519080825280602002602001820160405280156105715781602001602082028036833780820191505090505b50905060008367ffffffffffffffff8111156105905761058f6125aa565b5b6040519080825280602002602001820160405280156105be5781602001602082028036833780820191505090505b50905060008467ffffffffffffffff8111156105dd576105dc6125aa565b5b60405190808252806020026020018201604052801561061057816020015b60608152602001906001900390816105fb5790505b5090506000945060005b848110156108a257896001828154811061063757610636612cb8565b5b9060005260206000209060090201600301600101541480156106ce5750600073ffffffffffffffffffffffffffffffffffffffff16600182815481106106805761067f612cb8565b5b906000526020600020906009020160000160000160009054906101000a900473ffffffffffffffffffffffffffffffffffffffff1673ffffffffffffffffffffffffffffffffffffffff1614155b1561088f57600181815481106106e7576106e6612cb8565b5b906000526020600020906009020160000160000160009054906101000a900473ffffffffffffffffffffffffffffffffffffffff1684878151811061072f5761072e612cb8565b5b602002602001019073ffffffffffffffffffffffffffffffffffffffff16908173ffffffffffffffffffffffffffffffffffffffff16815250506001818154811061077d5761077c612cb8565b5b9060005260206000209060090201600001600101548387815181106107a5576107a4612cb8565b5b602002602001018181525050600181815481106107c5576107c4612cb8565b5b906000526020600020906009020160000160020180546107e490612c1b565b80601f016020809104026020016040519081016040528092919081815260200182805461081090612c1b565b801561085d5780601f106108325761010080835404028352916020019161085d565b820191906000526020600020905b81548152906001019060200180831161084057829003601f168201915b505050505082878151811061087557610874612cb8565b5b6020026020010181905250858061088b90612d16565b9650505b808061089a90612d16565b91505061061a565b5082828297509750975050505050509193909250565b60008251116108fc576040517f08c379a00000000000000000000000000000000000000000000000000000000081526004016108f390612daa565b60405180910390fd5b6000811161093f576040517f08c379a000000000000000000000000000000000000000000000000000000000815260040161093690612e16565b60405180910390fd5b6002805490508310610986576040517f08c379a000000000000000000000000000000000000000000000000000000000815260040161097d90612c98565b60405180910390fd5b6000824260405160200161099b929190612e93565b6040516020818303038152906040528051906020012060001c90506000604051806040016040528060405180606001604052803373ffffffffffffffffffffffffffffffffffffffff1681526020018581526020018781525081526020016040518060c001604052806040518060400160405280600481526020017f75616e67000000000000000000000000000000000000000000000000000000008152508152602001888152602001604051806020016040528060008152508152602001604051806020016040528060008152508152602001868152602001600015158152508152509050600181908060018154018082558091505060019003906000526020600020906009020160009091909190915060008201518160000160008201518160000160006101000a81548173ffffffffffffffffffffffffffffffffffffffff021916908373ffffffffffffffffffffffffffffffffffffffff160217905550602082015181600101556040820151816002019081610b1c9190613067565b5050506020820151816003016000820151816000019081610b3d9190613067565b50602082015181600101556040820151816002019081610b5d9190613067565b506060820151816003019081610b739190613067565b506080820151816004015560a08201518160050160006101000a81548160ff021916908315150217905550505050505050505050565b60006002805490508210610bf2576040517f08c379a0000000000000000000000000000000000000000000000000000000008152600401610be990612c98565b60405180910390fd5b60006001805490509050600080600090505b82811015610c5d578460018281548110610c2157610c20612cb8565b5b90600052602060002090600902016003016001015403610c4a578180610c4690612d16565b9250505b8080610c5590612d16565b915050610c04565b508092505050919050565b6000835111610cac576040517f08c379a0000000000000000000000000000000000000000000000000000000008152600401610ca390612daa565b60405180910390fd5b6000825111610cf0576040517f08c379a0000000000000000000000000000000000000000000000000000000008152600401610ce790613185565b60405180910390fd5b6000815111610d34576040517f08c379a0000000000000000000000000000000000000000000000000000000008152600401610d2b906131f1565b60405180910390fd5b6002805490508410610d7b576040517f08c379a0000000000000000000000000000000000000000000000000000000008152600401610d7290612c98565b60405180910390fd5b60008342604051602001610d90929190612e93565b6040516020818303038152906040528051906020012060001c90506000604051806040016040528060405180606001604052803373ffffffffffffffffffffffffffffffffffffffff1681526020018581526020018881525081526020016040518060c001604052806040518060400160405280600681526020017f626172616e670000000000000000000000000000000000000000000000000000815250815260200189815260200187815260200186815260200160008152602001600015158152508152509050600181908060018154018082558091505060019003906000526020600020906009020160009091909190915060008201518160000160008201518160000160006101000a81548173ffffffffffffffffffffffffffffffffffffffff021916908373ffffffffffffffffffffffffffffffffffffffff160217905550602082015181600101556040820151816002019081610ef49190613067565b5050506020820151816003016000820151816000019081610f159190613067565b50602082015181600101556040820151816002019081610f359190613067565b506060820151816003019081610f4b9190613067565b506080820151816004015560a08201518160050160006101000a81548160ff02191690831515021790555050505050505050505050565b60008060009054906101000a900473ffffffffffffffffffffffffffffffffffffffff16905090565b60608060608060606000600280549050905060008167ffffffffffffffff811115610fd957610fd86125aa565b5b6040519080825280602002602001820160405280156110075781602001602082028036833780820191505090505b50905060008267ffffffffffffffff811115611026576110256125aa565b5b60405190808252806020026020018201604052801561105957816020015b60608152602001906001900390816110445790505b50905060008367ffffffffffffffff811115611078576110776125aa565b5b6040519080825280602002602001820160405280156110ab57816020015b60608152602001906001900390816110965790505b50905060008467ffffffffffffffff8111156110ca576110c96125aa565b5b6040519080825280602002602001820160405280156110f85781602001602082028036833780820191505090505b50905060008567ffffffffffffffff811115611117576111166125aa565b5b6040519080825280602002602001820160405280156111455781602001602082028036833780820191505090505b50905060005b868110156113bb578086828151811061116757611166612cb8565b5b6020026020010181815250506002818154811061118757611186612cb8565b5b906000526020600020906004020160000180546111a390612c1b565b80601f01602080910402602001604051908101604052809291908181526020018280546111cf90612c1b565b801561121c5780601f106111f15761010080835404028352916020019161121c565b820191906000526020600020905b8154815290600101906020018083116111ff57829003601f168201915b505050505085828151811061123457611233612cb8565b5b60200260200101819052506002818154811061125357611252612cb8565b5b9060005260206000209060040201600101805461126f90612c1b565b80601f016020809104026020016040519081016040528092919081815260200182805461129b90612c1b565b80156112e85780601f106112bd576101008083540402835291602001916112e8565b820191906000526020600020905b8154815290600101906020018083116112cb57829003601f168201915b5050505050848281518110611300576112ff612cb8565b5b60200260200101819052506002818154811061131f5761131e612cb8565b5b906000526020600020906004020160030160009054906101000a900460ff1682828151811061135157611350612cb8565b5b6020026020010190151590811515815250506002818154811061137757611376612cb8565b5b90600052602060002090600402016002015483828151811061139c5761139b612cb8565b5b60200260200101818152505080806113b390612d16565b91505061114b565b5084848484849a509a509a509a509a505050505050509091929394565b600280549050811061141f576040517f08c379a000000000000000000000000000000000000000000000000000000000815260040161141690612c98565b60405180910390fd5b60016002828154811061143557611434612cb8565b5b906000526020600020906004020160030160006101000a81548160ff02191690831515021790555050565b60028054905081106114a7576040517f08c379a000000000000000000000000000000000000000000000000000000000815260040161149e90612c98565b60405180910390fd5b6000600180549050905060005b818110156115795783600182815481106114d1576114d0612cb8565b5b90600052602060002090600902016000016001015414801561151a5750826001828154811061150357611502612cb8565b5b906000526020600020906009020160030160010154145b1561156657600180828154811061153457611533612cb8565b5b906000526020600020906009020160030160050160006101000a81548160ff02191690831515021790555050506115b5565b808061157190612d16565b9150506114b4565b506040517f08c379a00000000000000000000000000000000000000000000000000000000081526004016115ac9061325d565b60405180910390fd5b5050565b6060806060806060806002805490508710611609576040517f08c379a000000000000000000000000000000000000000000000000000000000815260040161160090612c98565b60405180910390fd5b600080600180549050905060005b818110156116f257896001828154811061163457611633612cb8565b5b9060005260206000209060090201600301600101541480156116cb5750600073ffffffffffffffffffffffffffffffffffffffff166001828154811061167d5761167c612cb8565b5b906000526020600020906009020160000160000160009054906101000a900473ffffffffffffffffffffffffffffffffffffffff1673ffffffffffffffffffffffffffffffffffffffff1614155b156116df5782806116db90612d16565b9350505b80806116ea90612d16565b915050611617565b5060008267ffffffffffffffff81111561170f5761170e6125aa565b5b60405190808252806020026020018201604052801561174257816020015b606081526020019060019003908161172d5790505b50905060008367ffffffffffffffff811115611761576117606125aa565b5b60405190808252806020026020018201604052801561178f5781602001602082028036833780820191505090505b50905060008467ffffffffffffffff8111156117ae576117ad6125aa565b5b6040519080825280602002602001820160405280156117e157816020015b60608152602001906001900390816117cc5790505b50905060008567ffffffffffffffff811115611800576117ff6125aa565b5b60405190808252806020026020018201604052801561183357816020015b606081526020019060019003908161181e5790505b50905060008667ffffffffffffffff811115611852576118516125aa565b5b6040519080825280602002602001820160405280156118805781602001602082028036833780820191505090505b50905060008767ffffffffffffffff81111561189f5761189e6125aa565b5b6040519080825280602002602001820160405280156118cd5781602001602082028036833780820191505090505b5090506000975060005b87811015611d0a578f600182815481106118f4576118f3612cb8565b5b90600052602060002090600902016003016001015414801561198b5750600073ffffffffffffffffffffffffffffffffffffffff166001828154811061193d5761193c612cb8565b5b906000526020600020906009020160000160000160009054906101000a900473ffffffffffffffffffffffffffffffffffffffff1673ffffffffffffffffffffffffffffffffffffffff1614155b15611cf757600181815481106119a4576119a3612cb8565b5b906000526020600020906009020160030160000180546119c390612c1b565b80601f01602080910402602001604051908101604052809291908181526020018280546119ef90612c1b565b8015611a3c5780601f10611a1157610100808354040283529160200191611a3c565b820191906000526020600020905b815481529060010190602001808311611a1f57829003601f168201915b5050505050878a81518110611a5457611a53612cb8565b5b602002602001018190525060018181548110611a7357611a72612cb8565b5b906000526020600020906009020160030160010154868a81518110611a9b57611a9a612cb8565b5b60200260200101818152505060018181548110611abb57611aba612cb8565b5b90600052602060002090600902016003016002018054611ada90612c1b565b80601f0160208091040260200160405190810160405280929190818152602001828054611b0690612c1b565b8015611b535780601f10611b2857610100808354040283529160200191611b53565b820191906000526020600020905b815481529060010190602001808311611b3657829003601f168201915b5050505050858a81518110611b6b57611b6a612cb8565b5b602002602001018190525060018181548110611b8a57611b89612cb8565b5b90600052602060002090600902016003016003018054611ba990612c1b565b80601f0160208091040260200160405190810160405280929190818152602001828054611bd590612c1b565b8015611c225780601f10611bf757610100808354040283529160200191611c22565b820191906000526020600020905b815481529060010190602001808311611c0557829003601f168201915b5050505050848a81518110611c3a57611c39612cb8565b5b602002602001018190525060018181548110611c5957611c58612cb8565b5b906000526020600020906009020160030160040154838a81518110611c8157611c80612cb8565b5b60200260200101818152505060018181548110611ca157611ca0612cb8565b5b906000526020600020906009020160030160050160009054906101000a900460ff16828a81518110611cd657611cd5612cb8565b5b6020026020010190151590811515815250508880611cf390612d16565b9950505b8080611d0290612d16565b9150506118d7565b508585858585859d509d509d509d509d509d50505050505050505091939550919395565b60018181548110611d3e57600080fd5b9060005260206000209060090201600091509050806000016040518060600160405290816000820160009054906101000a900473ffffffffffffffffffffffffffffffffffffffff1673ffffffffffffffffffffffffffffffffffffffff1673ffffffffffffffffffffffffffffffffffffffff16815260200160018201548152602001600282018054611dd190612c1b565b80601f0160208091040260200160405190810160405280929190818152602001828054611dfd90612c1b565b8015611e4a5780601f10611e1f57610100808354040283529160200191611e4a565b820191906000526020600020905b815481529060010190602001808311611e2d57829003601f168201915b50505050508152505090806003016040518060c0016040529081600082018054611e7390612c1b565b80601f0160208091040260200160405190810160405280929190818152602001828054611e9f90612c1b565b8015611eec5780601f10611ec157610100808354040283529160200191611eec565b820191906000526020600020905b815481529060010190602001808311611ecf57829003601f168201915b5050505050815260200160018201548152602001600282018054611f0f90612c1b565b80601f0160208091040260200160405190810160405280929190818152602001828054611f3b90612c1b565b8015611f885780601f10611f5d57610100808354040283529160200191611f88565b820191906000526020600020905b815481529060010190602001808311611f6b57829003601f168201915b50505050508152602001600382018054611fa190612c1b565b80601f0160208091040260200160405190810160405280929190818152602001828054611fcd90612c1b565b801561201a5780601f10611fef5761010080835404028352916020019161201a565b820191906000526020600020905b815481529060010190602001808311611ffd57829003601f168201915b50505050508152602001600482015481526020016005820160009054906101000a900460ff161515151581525050905082565b6000806040518060800160405280868152602001858152602001848152602001600015158152509050600281908060018154018082558091505060019003906000526020600020906004020160009091909190915060008201518160000190816120b79190613067565b5060208201518160010190816120cd9190613067565b506040820151816002015560608201518160030160006101000a81548160ff0219169083151502179055505050600160028054905061210c919061327d565b9150509392505050565b6000604051905090565b600080fd5b600080fd5b6000819050919050565b61213d8161212a565b811461214857600080fd5b50565b60008135905061215a81612134565b92915050565b60006020828403121561217657612175612120565b5b60006121848482850161214b565b91505092915050565b600081519050919050565b600082825260208201905092915050565b60005b838110156121c75780820151818401526020810190506121ac565b60008484015250505050565b6000601f19601f8301169050919050565b60006121ef8261218d565b6121f98185612198565b93506122098185602086016121a9565b612212816121d3565b840191505092915050565b6122268161212a565b82525050565b60008115159050919050565b6122418161222c565b82525050565b6000608082019050818103600083015261226181876121e4565b9050818103602083015261227581866121e4565b9050612284604083018561221d565b6122916060830184612238565b95945050505050565b600081519050919050565b600082825260208201905092915050565b6000819050602082019050919050565b600073ffffffffffffffffffffffffffffffffffffffff82169050919050565b60006122f1826122c6565b9050919050565b612301816122e6565b82525050565b600061231383836122f8565b60208301905092915050565b6000602082019050919050565b60006123378261229a565b61234181856122a5565b935061234c836122b6565b8060005b8381101561237d5781516123648882612307565b975061236f8361231f565b925050600181019050612350565b5085935050505092915050565b600081519050919050565b600082825260208201905092915050565b6000819050602082019050919050565b6123bf8161212a565b82525050565b60006123d183836123b6565b60208301905092915050565b6000602082019050919050565b60006123f58261238a565b6123ff8185612395565b935061240a836123a6565b8060005b8381101561243b57815161242288826123c5565b975061242d836123dd565b92505060018101905061240e565b5085935050505092915050565b600081519050919050565b600082825260208201905092915050565b6000819050602082019050919050565b600082825260208201905092915050565b60006124908261218d565b61249a8185612474565b93506124aa8185602086016121a9565b6124b3816121d3565b840191505092915050565b60006124ca8383612485565b905092915050565b6000602082019050919050565b60006124ea82612448565b6124f48185612453565b93508360208202850161250685612464565b8060005b85811015612542578484038952815161252385826124be565b945061252e836124d2565b925060208a0199505060018101905061250a565b50829750879550505050505092915050565b6000606082019050818103600083015261256e818661232c565b9050818103602083015261258281856123ea565b9050818103604083015261259681846124df565b9050949350505050565b600080fd5b600080fd5b7f4e487b7100000000000000000000000000000000000000000000000000000000600052604160045260246000fd5b6125e2826121d3565b810181811067ffffffffffffffff82111715612601576126006125aa565b5b80604052505050565b6000612614612116565b905061262082826125d9565b919050565b600067ffffffffffffffff8211156126405761263f6125aa565b5b612649826121d3565b9050602081019050919050565b82818337600083830152505050565b600061267861267384612625565b61260a565b905082815260208101848484011115612694576126936125a5565b5b61269f848285612656565b509392505050565b600082601f8301126126bc576126bb6125a0565b5b81356126cc848260208601612665565b91505092915050565b6000806000606084860312156126ee576126ed612120565b5b60006126fc8682870161214b565b935050602084013567ffffffffffffffff81111561271d5761271c612125565b5b612729868287016126a7565b925050604061273a8682870161214b565b9150509250925092565b6000602082019050612759600083018461221d565b92915050565b6000806000806080858703121561277957612778612120565b5b60006127878782880161214b565b945050602085013567ffffffffffffffff8111156127a8576127a7612125565b5b6127b4878288016126a7565b935050604085013567ffffffffffffffff8111156127d5576127d4612125565b5b6127e1878288016126a7565b925050606085013567ffffffffffffffff81111561280257612801612125565b5b61280e878288016126a7565b91505092959194509250565b612823816122e6565b82525050565b600060208201905061283e600083018461281a565b92915050565b600081519050919050565b600082825260208201905092915050565b6000819050602082019050919050565b6128798161222c565b82525050565b600061288b8383612870565b60208301905092915050565b6000602082019050919050565b60006128af82612844565b6128b9818561284f565b93506128c483612860565b8060005b838110156128f55781516128dc888261287f565b97506128e783612897565b9250506001810190506128c8565b5085935050505092915050565b600060a082019050818103600083015261291c81886123ea565b9050818103602083015261293081876124df565b9050818103604083015261294481866124df565b9050818103606083015261295881856123ea565b9050818103608083015261296c81846128a4565b90509695505050505050565b6000806040838503121561298f5761298e612120565b5b600061299d8582860161214b565b92505060206129ae8582860161214b565b9150509250929050565b600060c08201905081810360008301526129d281896124df565b905081810360208301526129e681886123ea565b905081810360408301526129fa81876124df565b90508181036060830152612a0e81866124df565b90508181036080830152612a2281856123ea565b905081810360a0830152612a3681846128a4565b9050979650505050505050565b6000606083016000830151612a5b60008601826122f8565b506020830151612a6e60208601826123b6565b5060408301518482036040860152612a868282612485565b9150508091505092915050565b600060c0830160008301518482036000860152612ab08282612485565b9150506020830151612ac560208601826123b6565b5060408301518482036040860152612add8282612485565b91505060608301518482036060860152612af78282612485565b9150506080830151612b0c60808601826123b6565b5060a0830151612b1f60a0860182612870565b508091505092915050565b60006040820190508181036000830152612b448185612a43565b90508181036020830152612b588184612a93565b90509392505050565b600080600060608486031215612b7a57612b79612120565b5b600084013567ffffffffffffffff811115612b9857612b97612125565b5b612ba4868287016126a7565b935050602084013567ffffffffffffffff811115612bc557612bc4612125565b5b612bd1868287016126a7565b9250506040612be28682870161214b565b9150509250925092565b7f4e487b7100000000000000000000000000000000000000000000000000000000600052602260045260246000fd5b60006002820490506001821680612c3357607f821691505b602082108103612c4657612c45612bec565b5b50919050565b7f4944206b616d70616e796520746964616b2076616c6964000000000000000000600082015250565b6000612c82601783612198565b9150612c8d82612c4c565b602082019050919050565b60006020820190508181036000830152612cb181612c75565b9050919050565b7f4e487b7100000000000000000000000000000000000000000000000000000000600052603260045260246000fd5b7f4e487b7100000000000000000000000000000000000000000000000000000000600052601160045260246000fd5b6000612d218261212a565b91507fffffffffffffffffffffffffffffffffffffffffffffffffffffffffffffffff8203612d5357612d52612ce7565b5b600182019050919050565b7f4e616d6120646f6e617475722068617275732064696973690000000000000000600082015250565b6000612d94601883612198565b9150612d9f82612d5e565b602082019050919050565b60006020820190508181036000830152612dc381612d87565b9050919050565b7f4a756d6c616820646f6e617369206861727573206c6562696820646172692030600082015250565b6000612e00602083612198565b9150612e0b82612dca565b602082019050919050565b60006020820190508181036000830152612e2f81612df3565b9050919050565b600081905092915050565b6000612e4c8261218d565b612e568185612e36565b9350612e668185602086016121a9565b80840191505092915050565b6000819050919050565b612e8d612e888261212a565b612e72565b82525050565b6000612e9f8285612e41565b9150612eab8284612e7c565b6020820191508190509392505050565b60008190508160005260206000209050919050565b60006020601f8301049050919050565b600082821b905092915050565b600060088302612f1d7fffffffffffffffffffffffffffffffffffffffffffffffffffffffffffffffff82612ee0565b612f278683612ee0565b95508019841693508086168417925050509392505050565b6000819050919050565b6000612f64612f5f612f5a8461212a565b612f3f565b61212a565b9050919050565b6000819050919050565b612f7e83612f49565b612f92612f8a82612f6b565b848454612eed565b825550505050565b600090565b612fa7612f9a565b612fb2818484612f75565b505050565b5b81811015612fd657612fcb600082612f9f565b600181019050612fb8565b5050565b601f82111561301b57612fec81612ebb565b612ff584612ed0565b81016020851015613004578190505b61301861301085612ed0565b830182612fb7565b50505b505050565b600082821c905092915050565b600061303e60001984600802613020565b1980831691505092915050565b6000613057838361302d565b9150826002028217905092915050565b6130708261218d565b67ffffffffffffffff811115613089576130886125aa565b5b6130938254612c1b565b61309e828285612fda565b600060209050601f8311600181146130d157600084156130bf578287015190505b6130c9858261304b565b865550613131565b601f1984166130df86612ebb565b60005b82811015613107578489015182556001820191506020850194506020810190506130e2565b868310156131245784890151613120601f89168261302d565b8355505b6001600288020188555050505b505050505050565b7f4e616d6120626172616e67206861727573206469697369000000000000000000600082015250565b600061316f601783612198565b915061317a82613139565b602082019050919050565b6000602082019050818103600083015261319e81613162565b9050919050565b7f4465736b726970736920626172616e6720686172757320646969736900000000600082015250565b60006131db601c83612198565b91506131e6826131a5565b602082019050919050565b6000602082019050818103600083015261320a816131ce565b9050919050565b7f446f6e61736920746964616b20646974656d756b616e00000000000000000000600082015250565b6000613247601683612198565b915061325282613211565b602082019050919050565b600060208201905081810360008301526132768161323a565b9050919050565b60006132888261212a565b91506132938361212a565b92508282039050818111156132ab576132aa612ce7565b5b9291505056fea26469706673582212208a8ecec56f18cad14cd95161a8a1e064ae205684993bbf4f08fbe01ba9a6fe3164736f6c63430008130033",
  "immutableReferences": {},
  "source": "// SPDX-License-Identifier: MIT\r\npragma solidity ^0.8.0;\r\n\r\ncontract DonationContract {\r\n    address volunteer;\r\n\r\n    constructor(){\r\n        volunteer = msg.sender;\r\n    }\r\n\r\n    struct Donor {\r\n        address donor;\r\n        uint256 id;\r\n        string donorName;\r\n    }\r\n\r\n    struct DonationDetail {\r\n        string donationType;\r\n        uint256 campaignId;\r\n        string itemName;\r\n        string itemDescription;\r\n        uint donationAmount;\r\n        bool donationStatus;\r\n    }\r\n\r\n    struct Donation {\r\n        Donor donor;\r\n        DonationDetail detail;\r\n    }\r\n\r\n    struct Campaign {\r\n        string campaignName;\r\n        string campaignDescription;\r\n        uint maximumDonation;\r\n        bool campaignStatus;\r\n    }\r\n\r\n    Donation[] public donations;\r\n    Campaign[] public campaigns;\r\n\r\n    function donateBarang(uint256 _campaignId, string memory _donorName, string memory _itemName, string memory _itemDescription) public {\r\n        require(bytes(_donorName).length > 0, \"Nama donatur harus diisi\");\r\n        require(bytes(_itemName).length > 0, \"Nama barang harus diisi\");\r\n        require(bytes(_itemDescription).length > 0, \"Deskripsi barang harus diisi\");\r\n        require(_campaignId < campaigns.length, \"ID kampanye tidak valid\");\r\n\r\n        uint256 id = uint256(keccak256(abi.encodePacked(_donorName, block.timestamp)));\r\n\r\n        Donation memory newDonation = Donation(\r\n            Donor(msg.sender, id, _donorName),\r\n            DonationDetail(\"barang\", _campaignId, _itemName, _itemDescription, 0, false)\r\n        );\r\n        donations.push(newDonation);\r\n    }\r\n\r\n    function donateUang(uint256 _campaignId, string memory _donorName, uint _donationAmount) public {\r\n        require(bytes(_donorName).length > 0, \"Nama donatur harus diisi\");\r\n        require(_donationAmount > 0, \"Jumlah donasi harus lebih dari 0\");\r\n        require(_campaignId < campaigns.length, \"ID kampanye tidak valid\");\r\n\r\n        uint256 id = uint256(keccak256(abi.encodePacked(_donorName, block.timestamp)));\r\n\r\n        Donation memory newDonation = Donation(\r\n            Donor(msg.sender, id, _donorName),\r\n            DonationDetail(\"uang\", _campaignId, \"\", \"\", _donationAmount, false)\r\n        );\r\n        donations.push(newDonation);\r\n    }\r\n\r\n    function createCampaign(string memory _campaignName, string memory _campaignDescription, uint _maximumDonation) public returns (uint256) {\r\n        Campaign memory newCampaign = Campaign(_campaignName, _campaignDescription, _maximumDonation, false);\r\n        campaigns.push(newCampaign);\r\n        return campaigns.length - 1; // Mengembalikan ID kampanye yang baru ditambahkan\r\n    }\r\n\r\n    function getDonationsCount(uint _campaignId) public view returns (uint) {\r\n        require(_campaignId < campaigns.length, \"ID kampanye tidak valid\");\r\n        uint256 length = donations.length;\r\n        uint256 count;\r\n        for (uint256 i = 0; i < length; i++) {\r\n            if (donations[i].detail.campaignId == _campaignId) {\r\n                count++;\r\n            }\r\n        }\r\n        return count;\r\n    }\r\n\r\n    function getDonors(uint256 _campaignId) public view returns (address[] memory, uint256[] memory, string[] memory) {\r\n        require(_campaignId < campaigns.length, \"ID kampanye tidak valid\");\r\n\r\n        uint256 count = 0;\r\n        uint256 length = donations.length;\r\n        \r\n        for (uint256 i = 0; i < length; i++) {\r\n            if (donations[i].detail.campaignId == _campaignId && donations[i].donor.donor != address(0)) {\r\n                count++;\r\n            }\r\n        }\r\n        address[] memory donors = new address[](count);\r\n        uint256[] memory ids = new uint256[](count);\r\n        string[] memory donorNames = new string[](count);\r\n        count = 0;\r\n        for (uint256 i = 0; i < length; i++) {\r\n            if (donations[i].detail.campaignId == _campaignId && donations[i].donor.donor != address(0)) {\r\n                donors[count] = donations[i].donor.donor;\r\n                ids[count] = donations[i].donor.id;\r\n                donorNames[count] = donations[i].donor.donorName;\r\n                count++;\r\n            }\r\n        }\r\n        return (donors, ids, donorNames);\r\n    }\r\n\r\n\r\n    function getDonationDetails(uint256 _campaignId) public view returns (string[] memory, uint256[] memory, string[] memory, string[] memory, uint[] memory, bool[] memory) {\r\n        require(_campaignId < campaigns.length, \"ID kampanye tidak valid\");\r\n        \r\n        \r\n        uint256 count = 0;\r\n        uint256 length = donations.length;\r\n        \r\n        for (uint256 i = 0; i < length; i++) {\r\n            if (donations[i].detail.campaignId == _campaignId && donations[i].donor.donor != address(0)) {\r\n                count++;\r\n            }\r\n        }\r\n        string[] memory donationTypes = new string[](count);\r\n        uint256[] memory campaignIds = new uint256[](count);\r\n        string[] memory itemNames = new string[](count);\r\n        string[] memory itemDescriptions = new string[](count);\r\n        uint[] memory donationAmounts = new uint[](count);\r\n        bool[] memory donationStatuses = new bool[](count);\r\n\r\n        count = 0;\r\n        for (uint256 i = 0; i < length; i++) {\r\n            if (donations[i].detail.campaignId == _campaignId && donations[i].donor.donor != address(0)) {\r\n                donationTypes[count] = donations[i].detail.donationType;\r\n                campaignIds[count] = donations[i].detail.campaignId;\r\n                itemNames[count] = donations[i].detail.itemName;\r\n                itemDescriptions[count] = donations[i].detail.itemDescription;\r\n                donationAmounts[count] = donations[i].detail.donationAmount;\r\n                donationStatuses[count] = donations[i].detail.donationStatus;\r\n                count++;\r\n            }\r\n        }\r\n\r\n        return (donationTypes, campaignIds, itemNames, itemDescriptions, donationAmounts, donationStatuses);\r\n    }\r\n\r\n    function getVolunteer() public view returns (address){\r\n        return (volunteer);\r\n    }\r\n\r\n    function getCampaigns() public view returns (uint256[] memory, string[] memory, string[] memory, uint[] memory, bool[] memory) {\r\n        uint256 length = campaigns.length;\r\n        uint256[] memory campaignIds = new uint256[](length);\r\n        string[] memory campaignNames = new string[](length);\r\n        string[] memory campaignDescriptions = new string[](length);\r\n        uint[] memory   maximumDonations = new uint[](length);\r\n        bool[] memory campaignStatuses = new bool[](length);\r\n\r\n        for (uint256 i = 0; i < length; i++) {\r\n            campaignIds[i] = i;\r\n            campaignNames[i] = campaigns[i].campaignName;\r\n            campaignDescriptions[i] = campaigns[i].campaignDescription;\r\n            campaignStatuses[i] = campaigns[i].campaignStatus;\r\n            maximumDonations[i] = campaigns[i].maximumDonation;\r\n        }\r\n\r\n        return (campaignIds, campaignNames, campaignDescriptions, maximumDonations, campaignStatuses);\r\n    }\r\n\r\n\r\n    function updateDonationStatus(uint256 _id, uint256 _campaignId) public {\r\n        require(_campaignId < campaigns.length, \"ID kampanye tidak valid\");\r\n        uint256 length = donations.length;\r\n        for (uint256 i = 0; i < length; i++) {\r\n            if (donations[i].donor.id == _id && donations[i].detail.campaignId == _campaignId) {\r\n                donations[i].detail.donationStatus = true;\r\n                return;\r\n            }\r\n        }\r\n        revert(\"Donasi tidak ditemukan\");\r\n    }\r\n\r\n    function updateCampaignStatus(uint256 _campaignId) public {\r\n        require(_campaignId < campaigns.length, \"ID kampanye tidak valid\");\r\n        campaigns[_campaignId].campaignStatus = true;\r\n    }\r\n\r\n}",
  "sourcePath": "C:\\Users\\roni\\tubes blockchain\\Donasi-YUK\\contracts\\DonationContract.sol",
  "compiler": {
    "name": "solc",
    "version": "0.8.19+commit.7dd6d404.Emscripten.clang"
  },
  "schemaVersion": "3.4.13",
  "updatedAt": "2023-06-07T06:10:04.052Z",
  "networkType": "ethereum",
  "devdoc": {
    "kind": "dev",
    "methods": {},
    "version": 1
  },
  "userdoc": {
    "kind": "user",
    "methods": {},
    "version": 1
  }
}